{
	"nim.sol": {
		"NimBoard": {
			"abi": [
				{
					"inputs": [
						{
							"internalType": "contract NimPlayer",
							"name": "a",
							"type": "address"
						},
						{
							"internalType": "contract NimPlayer",
							"name": "b",
							"type": "address"
						},
						{
							"internalType": "uint256[]",
							"name": "piles",
							"type": "uint256[]"
						}
					],
					"name": "startMisere",
					"outputs": [],
					"stateMutability": "payable",
					"type": "function"
				}
			],
			"devdoc": {
				"kind": "dev",
				"methods": {},
				"version": 1
			},
			"evm": {
				"assembly": "    /* \"nim.sol\":3455:5560  contract NimBoard is Nim... */\n  mstore(0x40, 0x80)\n  callvalue\n  dup1\n  iszero\n  tag_1\n  jumpi\n  0x00\n  dup1\n  revert\ntag_1:\n  pop\n  dataSize(sub_0)\n  dup1\n  dataOffset(sub_0)\n  0x00\n  codecopy\n  0x00\n  return\nstop\n\nsub_0: assembly {\n        /* \"nim.sol\":3455:5560  contract NimBoard is Nim... */\n      mstore(0x40, 0x80)\n      jumpi(tag_1, lt(calldatasize, 0x04))\n      shr(0xe0, calldataload(0x00))\n      dup1\n      0x11c28c99\n      eq\n      tag_2\n      jumpi\n    tag_1:\n      0x00\n      dup1\n      revert\n        /* \"nim.sol\":4124:5543  function startMisere(NimPlayer a, NimPlayer b, uint256[] calldata piles) override payable external{... */\n    tag_2:\n      tag_3\n      0x04\n      dup1\n      calldatasize\n      sub\n      dup2\n      add\n      swap1\n      tag_4\n      swap2\n      swap1\n      tag_5\n      jump\t// in\n    tag_4:\n      tag_6\n      jump\t// in\n    tag_3:\n      stop\n    tag_6:\n        /* \"nim.sol\":4254:4279  uint256[] memory newpiles */\n      0x00\n        /* \"nim.sol\":4296:4301  piles */\n      dup3\n      dup3\n        /* \"nim.sol\":4296:4308  piles.length */\n      swap1\n      pop\n        /* \"nim.sol\":4282:4309  new uint256[](piles.length) */\n      0xffffffffffffffff\n      dup2\n      gt\n      iszero\n      tag_8\n      jumpi\n      tag_9\n      tag_10\n      jump\t// in\n    tag_9:\n    tag_8:\n      mload(0x40)\n      swap1\n      dup1\n      dup3\n      mstore\n      dup1\n      0x20\n      mul\n      0x20\n      add\n      dup3\n      add\n      0x40\n      mstore\n      dup1\n      iszero\n      tag_11\n      jumpi\n      dup2\n      0x20\n      add\n      0x20\n      dup3\n      mul\n      dup1\n      calldatasize\n      dup4\n      calldatacopy\n      dup1\n      dup3\n      add\n      swap2\n      pop\n      pop\n      swap1\n      pop\n    tag_11:\n      pop\n        /* \"nim.sol\":4254:4309  uint256[] memory newpiles = new uint256[](piles.length) */\n      swap1\n      pop\n        /* \"nim.sol\":4323:4329  uint i */\n      0x00\n        /* \"nim.sol\":4319:4404  for(uint i = 0; i < piles.length; i++){... */\n    tag_12:\n        /* \"nim.sol\":4339:4344  piles */\n      dup4\n      dup4\n        /* \"nim.sol\":4339:4351  piles.length */\n      swap1\n      pop\n        /* \"nim.sol\":4335:4336  i */\n      dup2\n        /* \"nim.sol\":4335:4351  i < piles.length */\n      lt\n        /* \"nim.sol\":4319:4404  for(uint i = 0; i < piles.length; i++){... */\n      iszero\n      tag_13\n      jumpi\n        /* \"nim.sol\":4385:4390  piles */\n      dup4\n      dup4\n        /* \"nim.sol\":4391:4392  i */\n      dup3\n        /* \"nim.sol\":4385:4393  piles[i] */\n      dup2\n      dup2\n      lt\n      tag_15\n      jumpi\n      tag_16\n      tag_17\n      jump\t// in\n    tag_16:\n    tag_15:\n      swap1\n      pop\n      0x20\n      mul\n      add\n      calldataload\n        /* \"nim.sol\":4371:4379  newpiles */\n      dup3\n        /* \"nim.sol\":4380:4381  i */\n      dup3\n        /* \"nim.sol\":4371:4382  newpiles[i] */\n      dup2\n      mload\n      dup2\n      lt\n      tag_18\n      jumpi\n      tag_19\n      tag_17\n      jump\t// in\n    tag_19:\n    tag_18:\n      0x20\n      mul\n      0x20\n      add\n      add\n        /* \"nim.sol\":4371:4393  newpiles[i] = piles[i] */\n      dup2\n      dup2\n      mstore\n      pop\n      pop\n        /* \"nim.sol\":4353:4356  i++ */\n      dup1\n      dup1\n      0x01\n      add\n      swap2\n      pop\n      pop\n        /* \"nim.sol\":4319:4404  for(uint i = 0; i < piles.length; i++){... */\n      jump(tag_12)\n    tag_13:\n      pop\n        /* \"nim.sol\":4414:4430  bool playerATurn */\n      0x00\n        /* \"nim.sol\":4433:4437  true */\n      0x01\n        /* \"nim.sol\":4414:4437  bool playerATurn = true */\n      swap1\n      pop\n        /* \"nim.sol\":4448:5537  while (true) {... */\n    tag_20:\n        /* \"nim.sol\":4455:4459  true */\n      0x01\n        /* \"nim.sol\":4448:5537  while (true) {... */\n      iszero\n      tag_21\n      jumpi\n        /* \"nim.sol\":4475:4498  NimPlayer currentPlayer */\n      0x00\n        /* \"nim.sol\":4501:4512  playerATurn */\n      dup2\n        /* \"nim.sol\":4501:4520  playerATurn ? a : b */\n      tag_22\n      jumpi\n        /* \"nim.sol\":4519:4520  b */\n      dup6\n        /* \"nim.sol\":4501:4520  playerATurn ? a : b */\n      jump(tag_23)\n    tag_22:\n        /* \"nim.sol\":4515:4516  a */\n      dup7\n        /* \"nim.sol\":4501:4520  playerATurn ? a : b */\n    tag_23:\n        /* \"nim.sol\":4475:4520  NimPlayer currentPlayer = playerATurn ? a : b */\n      swap1\n      pop\n        /* \"nim.sol\":4534:4558  NimPlayer opponentPlayer */\n      0x00\n        /* \"nim.sol\":4561:4572  playerATurn */\n      dup3\n        /* \"nim.sol\":4561:4580  playerATurn ? b : a */\n      tag_24\n      jumpi\n        /* \"nim.sol\":4579:4580  a */\n      dup8\n        /* \"nim.sol\":4561:4580  playerATurn ? b : a */\n      jump(tag_25)\n    tag_24:\n        /* \"nim.sol\":4575:4576  b */\n      dup7\n        /* \"nim.sol\":4561:4580  playerATurn ? b : a */\n    tag_25:\n        /* \"nim.sol\":4534:4580  NimPlayer opponentPlayer = playerATurn ? b : a */\n      swap1\n      pop\n        /* \"nim.sol\":4599:4612  currentPlayer */\n      dup2\n        /* \"nim.sol\":4599:4621  currentPlayer.nextMove */\n      0xffffffffffffffffffffffffffffffffffffffff\n      and\n      0x14f6f57a\n        /* \"nim.sol\":4622:4630  newpiles */\n      dup6\n        /* \"nim.sol\":4599:4631  currentPlayer.nextMove(newpiles) */\n      mload(0x40)\n      dup3\n      0xffffffff\n      and\n      0xe0\n      shl\n      dup2\n      mstore\n      0x04\n      add\n      tag_26\n      swap2\n      swap1\n      tag_27\n      jump\t// in\n    tag_26:\n      0x40\n      dup1\n      mload\n      dup1\n      dup4\n      sub\n      dup2\n      0x00\n      dup8\n      gas\n      call\n      swap3\n      pop\n      pop\n      pop\n      dup1\n      iszero\n      tag_28\n      jumpi\n      pop\n      mload(0x40)\n      returndatasize\n      not(0x1f)\n      0x1f\n      dup3\n      add\n      and\n      dup3\n      add\n      dup1\n      0x40\n      mstore\n      pop\n      dup2\n      add\n      swap1\n      tag_29\n      swap2\n      swap1\n      tag_30\n      jump\t// in\n    tag_29:\n      0x01\n    tag_28:\n        /* \"nim.sol\":4595:5486  try currentPlayer.nextMove(newpiles) returns (uint pile, uint256 quantity) {... */\n      tag_31\n      jumpi\n        /* \"nim.sol\":5348:5361  currentPlayer */\n      dup2\n        /* \"nim.sol\":5348:5374  currentPlayer.UlostBadMove */\n      0xffffffffffffffffffffffffffffffffffffffff\n      and\n      0xc6616c46\n        /* \"nim.sol\":5348:5376  currentPlayer.UlostBadMove() */\n      mload(0x40)\n      dup2\n      0xffffffff\n      and\n      0xe0\n      shl\n      dup2\n      mstore\n      0x04\n      add\n      0x00\n      mload(0x40)\n      dup1\n      dup4\n      sub\n      dup2\n      0x00\n      dup8\n      dup1\n      extcodesize\n      iszero\n      dup1\n      iszero\n      tag_35\n      jumpi\n      0x00\n      dup1\n      revert\n    tag_35:\n      pop\n      gas\n      call\n      iszero\n      dup1\n      iszero\n      tag_37\n      jumpi\n      returndatasize\n      0x00\n      dup1\n      returndatacopy\n      revert(0x00, returndatasize)\n    tag_37:\n      pop\n      pop\n      pop\n      pop\n        /* \"nim.sol\":5394:5408  opponentPlayer */\n      dup1\n        /* \"nim.sol\":5394:5413  opponentPlayer.Uwon */\n      0xffffffffffffffffffffffffffffffffffffffff\n      and\n      0x0bc59f4f\n        /* \"nim.sol\":5433:5444  0.001 ether */\n      0x038d7ea4c68000\n        /* \"nim.sol\":5421:5430  msg.value */\n      callvalue\n        /* \"nim.sol\":5421:5444  msg.value - 0.001 ether */\n      tag_38\n      swap2\n      swap1\n      tag_39\n      jump\t// in\n    tag_38:\n        /* \"nim.sol\":5394:5447  opponentPlayer.Uwon{value: msg.value - 0.001 ether}() */\n      mload(0x40)\n      dup3\n      0xffffffff\n      and\n      0xe0\n      shl\n      dup2\n      mstore\n      0x04\n      add\n      0x00\n      mload(0x40)\n      dup1\n      dup4\n      sub\n      dup2\n      dup6\n      dup9\n      dup1\n      extcodesize\n      iszero\n      dup1\n      iszero\n      tag_40\n      jumpi\n      0x00\n      dup1\n      revert\n    tag_40:\n      pop\n      gas\n      call\n      iszero\n      dup1\n      iszero\n      tag_42\n      jumpi\n      returndatasize\n      0x00\n      dup1\n      returndatacopy\n      revert(0x00, returndatasize)\n    tag_42:\n      pop\n      pop\n      pop\n      pop\n      pop\n        /* \"nim.sol\":5465:5472  return; */\n      pop\n      pop\n      pop\n      pop\n      jump(tag_7)\n        /* \"nim.sol\":4595:5486  try currentPlayer.nextMove(newpiles) returns (uint pile, uint256 quantity) {... */\n    tag_31:\n        /* \"nim.sol\":4692:4729  illegalMove(newpiles, pile, quantity) */\n      tag_44\n        /* \"nim.sol\":4704:4712  newpiles */\n      dup7\n        /* \"nim.sol\":4714:4718  pile */\n      dup4\n        /* \"nim.sol\":4720:4728  quantity */\n      dup4\n        /* \"nim.sol\":4692:4703  illegalMove */\n      tag_45\n        /* \"nim.sol\":4692:4729  illegalMove(newpiles, pile, quantity) */\n      jump\t// in\n    tag_44:\n        /* \"nim.sol\":4688:4939  if (illegalMove(newpiles, pile, quantity)) {... */\n      iszero\n      tag_46\n      jumpi\n        /* \"nim.sol\":4789:4802  currentPlayer */\n      dup4\n        /* \"nim.sol\":4789:4815  currentPlayer.UlostBadMove */\n      0xffffffffffffffffffffffffffffffffffffffff\n      and\n      0xc6616c46\n        /* \"nim.sol\":4789:4817  currentPlayer.UlostBadMove() */\n      mload(0x40)\n      dup2\n      0xffffffff\n      and\n      0xe0\n      shl\n      dup2\n      mstore\n      0x04\n      add\n      0x00\n      mload(0x40)\n      dup1\n      dup4\n      sub\n      dup2\n      0x00\n      dup8\n      dup1\n      extcodesize\n      iszero\n      dup1\n      iszero\n      tag_47\n      jumpi\n      0x00\n      dup1\n      revert\n    tag_47:\n      pop\n      gas\n      call\n      iszero\n      dup1\n      iszero\n      tag_49\n      jumpi\n      returndatasize\n      0x00\n      dup1\n      returndatacopy\n      revert(0x00, returndatasize)\n    tag_49:\n      pop\n      pop\n      pop\n      pop\n        /* \"nim.sol\":4839:4853  opponentPlayer */\n      dup3\n        /* \"nim.sol\":4839:4858  opponentPlayer.Uwon */\n      0xffffffffffffffffffffffffffffffffffffffff\n      and\n      0x0bc59f4f\n        /* \"nim.sol\":4878:4889  0.001 ether */\n      0x038d7ea4c68000\n        /* \"nim.sol\":4866:4875  msg.value */\n      callvalue\n        /* \"nim.sol\":4866:4889  msg.value - 0.001 ether */\n      tag_50\n      swap2\n      swap1\n      tag_39\n      jump\t// in\n    tag_50:\n        /* \"nim.sol\":4839:4892  opponentPlayer.Uwon{value: msg.value - 0.001 ether}() */\n      mload(0x40)\n      dup3\n      0xffffffff\n      and\n      0xe0\n      shl\n      dup2\n      mstore\n      0x04\n      add\n      0x00\n      mload(0x40)\n      dup1\n      dup4\n      sub\n      dup2\n      dup6\n      dup9\n      dup1\n      extcodesize\n      iszero\n      dup1\n      iszero\n      tag_51\n      jumpi\n      0x00\n      dup1\n      revert\n    tag_51:\n      pop\n      gas\n      call\n      iszero\n      dup1\n      iszero\n      tag_53\n      jumpi\n      returndatasize\n      0x00\n      dup1\n      returndatacopy\n      revert(0x00, returndatasize)\n    tag_53:\n      pop\n      pop\n      pop\n      pop\n      pop\n        /* \"nim.sol\":4914:4921  return; */\n      pop\n      pop\n      pop\n      pop\n      pop\n      pop\n      jump(tag_7)\n        /* \"nim.sol\":4688:4939  if (illegalMove(newpiles, pile, quantity)) {... */\n    tag_46:\n        /* \"nim.sol\":4975:4983  quantity */\n      dup1\n        /* \"nim.sol\":4957:4965  newpiles */\n      dup7\n        /* \"nim.sol\":4966:4970  pile */\n      dup4\n        /* \"nim.sol\":4957:4971  newpiles[pile] */\n      dup2\n      mload\n      dup2\n      lt\n      tag_54\n      jumpi\n      tag_55\n      tag_17\n      jump\t// in\n    tag_55:\n    tag_54:\n      0x20\n      mul\n      0x20\n      add\n      add\n        /* \"nim.sol\":4957:4983  newpiles[pile] -= quantity */\n      dup2\n      dup2\n      mload\n      tag_56\n      swap2\n      swap1\n      tag_39\n      jump\t// in\n    tag_56:\n      swap2\n      pop\n      dup2\n      dup2\n      mstore\n      pop\n      pop\n        /* \"nim.sol\":5006:5026  checkEmpty(newpiles) */\n      tag_57\n        /* \"nim.sol\":5017:5025  newpiles */\n      dup7\n        /* \"nim.sol\":5006:5016  checkEmpty */\n      tag_58\n        /* \"nim.sol\":5006:5026  checkEmpty(newpiles) */\n      jump\t// in\n    tag_57:\n        /* \"nim.sol\":5002:5259  if (checkEmpty(newpiles)) {... */\n      iszero\n      tag_59\n      jumpi\n        /* \"nim.sol\":5116:5129  currentPlayer */\n      dup4\n        /* \"nim.sol\":5116:5135  currentPlayer.Ulost */\n      0xffffffffffffffffffffffffffffffffffffffff\n      and\n      0xde6de521\n        /* \"nim.sol\":5116:5137  currentPlayer.Ulost() */\n      mload(0x40)\n      dup2\n      0xffffffff\n      and\n      0xe0\n      shl\n      dup2\n      mstore\n      0x04\n      add\n      0x00\n      mload(0x40)\n      dup1\n      dup4\n      sub\n      dup2\n      0x00\n      dup8\n      dup1\n      extcodesize\n      iszero\n      dup1\n      iszero\n      tag_60\n      jumpi\n      0x00\n      dup1\n      revert\n    tag_60:\n      pop\n      gas\n      call\n      iszero\n      dup1\n      iszero\n      tag_62\n      jumpi\n      returndatasize\n      0x00\n      dup1\n      returndatacopy\n      revert(0x00, returndatasize)\n    tag_62:\n      pop\n      pop\n      pop\n      pop\n        /* \"nim.sol\":5159:5173  opponentPlayer */\n      dup3\n        /* \"nim.sol\":5159:5178  opponentPlayer.Uwon */\n      0xffffffffffffffffffffffffffffffffffffffff\n      and\n      0x0bc59f4f\n        /* \"nim.sol\":5198:5209  0.001 ether */\n      0x038d7ea4c68000\n        /* \"nim.sol\":5186:5195  msg.value */\n      callvalue\n        /* \"nim.sol\":5186:5209  msg.value - 0.001 ether */\n      tag_63\n      swap2\n      swap1\n      tag_39\n      jump\t// in\n    tag_63:\n        /* \"nim.sol\":5159:5212  opponentPlayer.Uwon{value: msg.value - 0.001 ether}() */\n      mload(0x40)\n      dup3\n      0xffffffff\n      and\n      0xe0\n      shl\n      dup2\n      mstore\n      0x04\n      add\n      0x00\n      mload(0x40)\n      dup1\n      dup4\n      sub\n      dup2\n      dup6\n      dup9\n      dup1\n      extcodesize\n      iszero\n      dup1\n      iszero\n      tag_64\n      jumpi\n      0x00\n      dup1\n      revert\n    tag_64:\n      pop\n      gas\n      call\n      iszero\n      dup1\n      iszero\n      tag_66\n      jumpi\n      returndatasize\n      0x00\n      dup1\n      returndatacopy\n      revert(0x00, returndatasize)\n    tag_66:\n      pop\n      pop\n      pop\n      pop\n      pop\n        /* \"nim.sol\":5234:5241  return; */\n      pop\n      pop\n      pop\n      pop\n      pop\n      pop\n      jump(tag_7)\n        /* \"nim.sol\":5002:5259  if (checkEmpty(newpiles)) {... */\n    tag_59:\n        /* \"nim.sol\":4632:5273  returns (uint pile, uint256 quantity) {... */\n      pop\n      pop\n        /* \"nim.sol\":5515:5526  playerATurn */\n      dup3\n        /* \"nim.sol\":5514:5526  !playerATurn */\n      iszero\n        /* \"nim.sol\":5500:5526  playerATurn = !playerATurn */\n      swap3\n      pop\n        /* \"nim.sol\":4461:5537  {... */\n      pop\n      pop\n        /* \"nim.sol\":4448:5537  while (true) {... */\n      jump(tag_20)\n    tag_21:\n        /* \"nim.sol\":4222:5543  {... */\n      pop\n      pop\n        /* \"nim.sol\":4124:5543  function startMisere(NimPlayer a, NimPlayer b, uint256[] calldata piles) override payable external{... */\n    tag_7:\n      pop\n      pop\n      pop\n      pop\n      jump\t// out\n        /* \"nim.sol\":3487:3891  function illegalMove(uint256[] memory piles, uint pile, uint256 quantity) internal pure returns(bool){... */\n    tag_45:\n        /* \"nim.sol\":3583:3587  bool */\n      0x00\n        /* \"nim.sol\":3613:3614  0 */\n      dup1\n        /* \"nim.sol\":3601:3609  quantity */\n      dup3\n        /* \"nim.sol\":3601:3614  quantity == 0 */\n      sub\n        /* \"nim.sol\":3598:3627  if(quantity == 0) return true */\n      tag_68\n      jumpi\n        /* \"nim.sol\":3623:3627  true */\n      0x01\n        /* \"nim.sol\":3616:3627  return true */\n      swap1\n      pop\n      jump(tag_67)\n        /* \"nim.sol\":3598:3627  if(quantity == 0) return true */\n    tag_68:\n        /* \"nim.sol\":3670:3671  0 */\n      0x00\n        /* \"nim.sol\":3655:3660  piles */\n      dup5\n        /* \"nim.sol\":3661:3665  pile */\n      dup5\n        /* \"nim.sol\":3655:3666  piles[pile] */\n      dup2\n      mload\n      dup2\n      lt\n      tag_69\n      jumpi\n      tag_70\n      tag_17\n      jump\t// in\n    tag_70:\n    tag_69:\n      0x20\n      mul\n      0x20\n      add\n      add\n      mload\n        /* \"nim.sol\":3655:3671  piles[pile] == 0 */\n      sub\n        /* \"nim.sol\":3652:3684  if(piles[pile] == 0) return true */\n      tag_71\n      jumpi\n        /* \"nim.sol\":3680:3684  true */\n      0x01\n        /* \"nim.sol\":3673:3684  return true */\n      swap1\n      pop\n      jump(tag_67)\n        /* \"nim.sol\":3652:3684  if(piles[pile] == 0) return true */\n    tag_71:\n        /* \"nim.sol\":3731:3736  piles */\n      dup4\n        /* \"nim.sol\":3737:3741  pile */\n      dup4\n        /* \"nim.sol\":3731:3742  piles[pile] */\n      dup2\n      mload\n      dup2\n      lt\n      tag_72\n      jumpi\n      tag_73\n      tag_17\n      jump\t// in\n    tag_73:\n    tag_72:\n      0x20\n      mul\n      0x20\n      add\n      add\n      mload\n        /* \"nim.sol\":3720:3728  quantity */\n      dup3\n        /* \"nim.sol\":3720:3742  quantity > piles[pile] */\n      gt\n        /* \"nim.sol\":3717:3755  if(quantity > piles[pile]) return true */\n      iszero\n      tag_74\n      jumpi\n        /* \"nim.sol\":3751:3755  true */\n      0x01\n        /* \"nim.sol\":3744:3755  return true */\n      swap1\n      pop\n      jump(tag_67)\n        /* \"nim.sol\":3717:3755  if(quantity > piles[pile]) return true */\n    tag_74:\n        /* \"nim.sol\":3804:3809  piles */\n      dup4\n        /* \"nim.sol\":3804:3816  piles.length */\n      mload\n        /* \"nim.sol\":3796:3800  pile */\n      dup4\n        /* \"nim.sol\":3796:3816  pile >= piles.length */\n      lt\n        /* \"nim.sol\":3793:3829  if(pile >= piles.length) return true */\n      tag_75\n      jumpi\n        /* \"nim.sol\":3825:3829  true */\n      0x01\n        /* \"nim.sol\":3818:3829  return true */\n      swap1\n      pop\n      jump(tag_67)\n        /* \"nim.sol\":3793:3829  if(pile >= piles.length) return true */\n    tag_75:\n        /* \"nim.sol\":3879:3884  false */\n      0x00\n        /* \"nim.sol\":3872:3884  return false */\n      swap1\n      pop\n        /* \"nim.sol\":3487:3891  function illegalMove(uint256[] memory piles, uint pile, uint256 quantity) internal pure returns(bool){... */\n    tag_67:\n      swap4\n      swap3\n      pop\n      pop\n      pop\n      jump\t// out\n        /* \"nim.sol\":3897:4118  function checkEmpty(uint256[] memory piles) internal pure returns(bool){... */\n    tag_58:\n        /* \"nim.sol\":3963:3967  bool */\n      0x00\n        /* \"nim.sol\":3983:3989  uint i */\n      dup1\n        /* \"nim.sol\":3992:3993  0 */\n      0x00\n        /* \"nim.sol\":3983:3993  uint i = 0 */\n      swap1\n      pop\n        /* \"nim.sol\":3978:4085  for (uint i = 0; i < piles.length; i++) ... */\n    tag_77:\n        /* \"nim.sol\":3999:4004  piles */\n      dup3\n        /* \"nim.sol\":3999:4011  piles.length */\n      mload\n        /* \"nim.sol\":3995:3996  i */\n      dup2\n        /* \"nim.sol\":3995:4011  i < piles.length */\n      lt\n        /* \"nim.sol\":3978:4085  for (uint i = 0; i < piles.length; i++) ... */\n      iszero\n      tag_78\n      jumpi\n        /* \"nim.sol\":4058:4059  0 */\n      0x00\n        /* \"nim.sol\":4046:4051  piles */\n      dup4\n        /* \"nim.sol\":4052:4053  i */\n      dup3\n        /* \"nim.sol\":4046:4054  piles[i] */\n      dup2\n      mload\n      dup2\n      lt\n      tag_80\n      jumpi\n      tag_81\n      tag_17\n      jump\t// in\n    tag_81:\n    tag_80:\n      0x20\n      mul\n      0x20\n      add\n      add\n      mload\n        /* \"nim.sol\":4046:4059  piles[i] != 0 */\n      eq\n        /* \"nim.sol\":4043:4073  if(piles[i] != 0) return false */\n      tag_82\n      jumpi\n        /* \"nim.sol\":4068:4073  false */\n      0x00\n        /* \"nim.sol\":4061:4073  return false */\n      swap2\n      pop\n      pop\n      jump(tag_76)\n        /* \"nim.sol\":4043:4073  if(piles[i] != 0) return false */\n    tag_82:\n        /* \"nim.sol\":4013:4016  i++ */\n      dup1\n      dup1\n      0x01\n      add\n      swap2\n      pop\n      pop\n        /* \"nim.sol\":3978:4085  for (uint i = 0; i < piles.length; i++) ... */\n      jump(tag_77)\n    tag_78:\n      pop\n        /* \"nim.sol\":4106:4110  true */\n      0x01\n        /* \"nim.sol\":4099:4110  return true */\n      swap1\n      pop\n        /* \"nim.sol\":3897:4118  function checkEmpty(uint256[] memory piles) internal pure returns(bool){... */\n    tag_76:\n      swap2\n      swap1\n      pop\n      jump\t// out\n        /* \"#utility.yul\":88:205   */\n    tag_84:\n        /* \"#utility.yul\":197:198   */\n      0x00\n        /* \"#utility.yul\":194:195   */\n      dup1\n        /* \"#utility.yul\":187:199   */\n      revert\n        /* \"#utility.yul\":211:328   */\n    tag_85:\n        /* \"#utility.yul\":320:321   */\n      0x00\n        /* \"#utility.yul\":317:318   */\n      dup1\n        /* \"#utility.yul\":310:322   */\n      revert\n        /* \"#utility.yul\":334:460   */\n    tag_86:\n        /* \"#utility.yul\":371:378   */\n      0x00\n        /* \"#utility.yul\":411:453   */\n      0xffffffffffffffffffffffffffffffffffffffff\n        /* \"#utility.yul\":404:409   */\n      dup3\n        /* \"#utility.yul\":400:454   */\n      and\n        /* \"#utility.yul\":389:454   */\n      swap1\n      pop\n        /* \"#utility.yul\":334:460   */\n      swap2\n      swap1\n      pop\n      jump\t// out\n        /* \"#utility.yul\":466:562   */\n    tag_87:\n        /* \"#utility.yul\":503:510   */\n      0x00\n        /* \"#utility.yul\":532:556   */\n      tag_112\n        /* \"#utility.yul\":550:555   */\n      dup3\n        /* \"#utility.yul\":532:556   */\n      tag_86\n      jump\t// in\n    tag_112:\n        /* \"#utility.yul\":521:556   */\n      swap1\n      pop\n        /* \"#utility.yul\":466:562   */\n      swap2\n      swap1\n      pop\n      jump\t// out\n        /* \"#utility.yul\":568:680   */\n    tag_88:\n        /* \"#utility.yul\":621:628   */\n      0x00\n        /* \"#utility.yul\":650:674   */\n      tag_114\n        /* \"#utility.yul\":668:673   */\n      dup3\n        /* \"#utility.yul\":650:674   */\n      tag_87\n      jump\t// in\n    tag_114:\n        /* \"#utility.yul\":639:674   */\n      swap1\n      pop\n        /* \"#utility.yul\":568:680   */\n      swap2\n      swap1\n      pop\n      jump\t// out\n        /* \"#utility.yul\":686:840   */\n    tag_89:\n        /* \"#utility.yul\":775:815   */\n      tag_116\n        /* \"#utility.yul\":809:814   */\n      dup2\n        /* \"#utility.yul\":775:815   */\n      tag_88\n      jump\t// in\n    tag_116:\n        /* \"#utility.yul\":768:773   */\n      dup2\n        /* \"#utility.yul\":765:816   */\n      eq\n        /* \"#utility.yul\":755:834   */\n      tag_117\n      jumpi\n        /* \"#utility.yul\":830:831   */\n      0x00\n        /* \"#utility.yul\":827:828   */\n      dup1\n        /* \"#utility.yul\":820:832   */\n      revert\n        /* \"#utility.yul\":755:834   */\n    tag_117:\n        /* \"#utility.yul\":686:840   */\n      pop\n      jump\t// out\n        /* \"#utility.yul\":846:1017   */\n    tag_90:\n        /* \"#utility.yul\":908:913   */\n      0x00\n        /* \"#utility.yul\":946:952   */\n      dup2\n        /* \"#utility.yul\":933:953   */\n      calldataload\n        /* \"#utility.yul\":924:953   */\n      swap1\n      pop\n        /* \"#utility.yul\":962:1011   */\n      tag_119\n        /* \"#utility.yul\":1005:1010   */\n      dup2\n        /* \"#utility.yul\":962:1011   */\n      tag_89\n      jump\t// in\n    tag_119:\n        /* \"#utility.yul\":846:1017   */\n      swap3\n      swap2\n      pop\n      pop\n      jump\t// out\n        /* \"#utility.yul\":1023:1140   */\n    tag_91:\n        /* \"#utility.yul\":1132:1133   */\n      0x00\n        /* \"#utility.yul\":1129:1130   */\n      dup1\n        /* \"#utility.yul\":1122:1134   */\n      revert\n        /* \"#utility.yul\":1146:1263   */\n    tag_92:\n        /* \"#utility.yul\":1255:1256   */\n      0x00\n        /* \"#utility.yul\":1252:1253   */\n      dup1\n        /* \"#utility.yul\":1245:1257   */\n      revert\n        /* \"#utility.yul\":1269:1386   */\n    tag_93:\n        /* \"#utility.yul\":1378:1379   */\n      0x00\n        /* \"#utility.yul\":1375:1376   */\n      dup1\n        /* \"#utility.yul\":1368:1380   */\n      revert\n        /* \"#utility.yul\":1409:1977   */\n    tag_94:\n        /* \"#utility.yul\":1482:1490   */\n      0x00\n        /* \"#utility.yul\":1492:1498   */\n      dup1\n        /* \"#utility.yul\":1542:1545   */\n      dup4\n        /* \"#utility.yul\":1535:1539   */\n      0x1f\n        /* \"#utility.yul\":1527:1533   */\n      dup5\n        /* \"#utility.yul\":1523:1540   */\n      add\n        /* \"#utility.yul\":1519:1546   */\n      slt\n        /* \"#utility.yul\":1509:1631   */\n      tag_124\n      jumpi\n        /* \"#utility.yul\":1550:1629   */\n      tag_125\n      tag_91\n      jump\t// in\n    tag_125:\n        /* \"#utility.yul\":1509:1631   */\n    tag_124:\n        /* \"#utility.yul\":1663:1669   */\n      dup3\n        /* \"#utility.yul\":1650:1670   */\n      calldataload\n        /* \"#utility.yul\":1640:1670   */\n      swap1\n      pop\n        /* \"#utility.yul\":1693:1711   */\n      0xffffffffffffffff\n        /* \"#utility.yul\":1685:1691   */\n      dup2\n        /* \"#utility.yul\":1682:1712   */\n      gt\n        /* \"#utility.yul\":1679:1796   */\n      iszero\n      tag_126\n      jumpi\n        /* \"#utility.yul\":1715:1794   */\n      tag_127\n      tag_92\n      jump\t// in\n    tag_127:\n        /* \"#utility.yul\":1679:1796   */\n    tag_126:\n        /* \"#utility.yul\":1829:1833   */\n      0x20\n        /* \"#utility.yul\":1821:1827   */\n      dup4\n        /* \"#utility.yul\":1817:1834   */\n      add\n        /* \"#utility.yul\":1805:1834   */\n      swap2\n      pop\n        /* \"#utility.yul\":1883:1886   */\n      dup4\n        /* \"#utility.yul\":1875:1879   */\n      0x20\n        /* \"#utility.yul\":1867:1873   */\n      dup3\n        /* \"#utility.yul\":1863:1880   */\n      mul\n        /* \"#utility.yul\":1853:1861   */\n      dup4\n        /* \"#utility.yul\":1849:1881   */\n      add\n        /* \"#utility.yul\":1846:1887   */\n      gt\n        /* \"#utility.yul\":1843:1971   */\n      iszero\n      tag_128\n      jumpi\n        /* \"#utility.yul\":1890:1969   */\n      tag_129\n      tag_93\n      jump\t// in\n    tag_129:\n        /* \"#utility.yul\":1843:1971   */\n    tag_128:\n        /* \"#utility.yul\":1409:1977   */\n      swap3\n      pop\n      swap3\n      swap1\n      pop\n      jump\t// out\n        /* \"#utility.yul\":1983:2896   */\n    tag_5:\n        /* \"#utility.yul\":2119:2125   */\n      0x00\n        /* \"#utility.yul\":2127:2133   */\n      dup1\n        /* \"#utility.yul\":2135:2141   */\n      0x00\n        /* \"#utility.yul\":2143:2149   */\n      dup1\n        /* \"#utility.yul\":2192:2194   */\n      0x60\n        /* \"#utility.yul\":2180:2189   */\n      dup6\n        /* \"#utility.yul\":2171:2178   */\n      dup8\n        /* \"#utility.yul\":2167:2190   */\n      sub\n        /* \"#utility.yul\":2163:2195   */\n      slt\n        /* \"#utility.yul\":2160:2279   */\n      iszero\n      tag_131\n      jumpi\n        /* \"#utility.yul\":2198:2277   */\n      tag_132\n      tag_84\n      jump\t// in\n    tag_132:\n        /* \"#utility.yul\":2160:2279   */\n    tag_131:\n        /* \"#utility.yul\":2318:2319   */\n      0x00\n        /* \"#utility.yul\":2343:2412   */\n      tag_133\n        /* \"#utility.yul\":2404:2411   */\n      dup8\n        /* \"#utility.yul\":2395:2401   */\n      dup3\n        /* \"#utility.yul\":2384:2393   */\n      dup9\n        /* \"#utility.yul\":2380:2402   */\n      add\n        /* \"#utility.yul\":2343:2412   */\n      tag_90\n      jump\t// in\n    tag_133:\n        /* \"#utility.yul\":2333:2412   */\n      swap5\n      pop\n        /* \"#utility.yul\":2289:2422   */\n      pop\n        /* \"#utility.yul\":2461:2463   */\n      0x20\n        /* \"#utility.yul\":2487:2556   */\n      tag_134\n        /* \"#utility.yul\":2548:2555   */\n      dup8\n        /* \"#utility.yul\":2539:2545   */\n      dup3\n        /* \"#utility.yul\":2528:2537   */\n      dup9\n        /* \"#utility.yul\":2524:2546   */\n      add\n        /* \"#utility.yul\":2487:2556   */\n      tag_90\n      jump\t// in\n    tag_134:\n        /* \"#utility.yul\":2477:2556   */\n      swap4\n      pop\n        /* \"#utility.yul\":2432:2566   */\n      pop\n        /* \"#utility.yul\":2633:2635   */\n      0x40\n        /* \"#utility.yul\":2622:2631   */\n      dup6\n        /* \"#utility.yul\":2618:2636   */\n      add\n        /* \"#utility.yul\":2605:2637   */\n      calldataload\n        /* \"#utility.yul\":2664:2682   */\n      0xffffffffffffffff\n        /* \"#utility.yul\":2656:2662   */\n      dup2\n        /* \"#utility.yul\":2653:2683   */\n      gt\n        /* \"#utility.yul\":2650:2767   */\n      iszero\n      tag_135\n      jumpi\n        /* \"#utility.yul\":2686:2765   */\n      tag_136\n      tag_85\n      jump\t// in\n    tag_136:\n        /* \"#utility.yul\":2650:2767   */\n    tag_135:\n        /* \"#utility.yul\":2799:2879   */\n      tag_137\n        /* \"#utility.yul\":2871:2878   */\n      dup8\n        /* \"#utility.yul\":2862:2868   */\n      dup3\n        /* \"#utility.yul\":2851:2860   */\n      dup9\n        /* \"#utility.yul\":2847:2869   */\n      add\n        /* \"#utility.yul\":2799:2879   */\n      tag_94\n      jump\t// in\n    tag_137:\n        /* \"#utility.yul\":2781:2879   */\n      swap3\n      pop\n      swap3\n      pop\n        /* \"#utility.yul\":2576:2889   */\n      pop\n        /* \"#utility.yul\":1983:2896   */\n      swap3\n      swap6\n      swap2\n      swap5\n      pop\n      swap3\n      pop\n      jump\t// out\n        /* \"#utility.yul\":2902:3082   */\n    tag_10:\n        /* \"#utility.yul\":2950:3027   */\n      0x4e487b7100000000000000000000000000000000000000000000000000000000\n        /* \"#utility.yul\":2947:2948   */\n      0x00\n        /* \"#utility.yul\":2940:3028   */\n      mstore\n        /* \"#utility.yul\":3047:3051   */\n      0x41\n        /* \"#utility.yul\":3044:3045   */\n      0x04\n        /* \"#utility.yul\":3037:3052   */\n      mstore\n        /* \"#utility.yul\":3071:3075   */\n      0x24\n        /* \"#utility.yul\":3068:3069   */\n      0x00\n        /* \"#utility.yul\":3061:3076   */\n      revert\n        /* \"#utility.yul\":3088:3268   */\n    tag_17:\n        /* \"#utility.yul\":3136:3213   */\n      0x4e487b7100000000000000000000000000000000000000000000000000000000\n        /* \"#utility.yul\":3133:3134   */\n      0x00\n        /* \"#utility.yul\":3126:3214   */\n      mstore\n        /* \"#utility.yul\":3233:3237   */\n      0x32\n        /* \"#utility.yul\":3230:3231   */\n      0x04\n        /* \"#utility.yul\":3223:3238   */\n      mstore\n        /* \"#utility.yul\":3257:3261   */\n      0x24\n        /* \"#utility.yul\":3254:3255   */\n      0x00\n        /* \"#utility.yul\":3247:3262   */\n      revert\n        /* \"#utility.yul\":3274:3388   */\n    tag_95:\n        /* \"#utility.yul\":3341:3347   */\n      0x00\n        /* \"#utility.yul\":3375:3380   */\n      dup2\n        /* \"#utility.yul\":3369:3381   */\n      mload\n        /* \"#utility.yul\":3359:3381   */\n      swap1\n      pop\n        /* \"#utility.yul\":3274:3388   */\n      swap2\n      swap1\n      pop\n      jump\t// out\n        /* \"#utility.yul\":3394:3578   */\n    tag_96:\n        /* \"#utility.yul\":3493:3504   */\n      0x00\n        /* \"#utility.yul\":3527:3533   */\n      dup3\n        /* \"#utility.yul\":3522:3525   */\n      dup3\n        /* \"#utility.yul\":3515:3534   */\n      mstore\n        /* \"#utility.yul\":3567:3571   */\n      0x20\n        /* \"#utility.yul\":3562:3565   */\n      dup3\n        /* \"#utility.yul\":3558:3572   */\n      add\n        /* \"#utility.yul\":3543:3572   */\n      swap1\n      pop\n        /* \"#utility.yul\":3394:3578   */\n      swap3\n      swap2\n      pop\n      pop\n      jump\t// out\n        /* \"#utility.yul\":3584:3716   */\n    tag_97:\n        /* \"#utility.yul\":3651:3655   */\n      0x00\n        /* \"#utility.yul\":3674:3677   */\n      dup2\n        /* \"#utility.yul\":3666:3677   */\n      swap1\n      pop\n        /* \"#utility.yul\":3704:3708   */\n      0x20\n        /* \"#utility.yul\":3699:3702   */\n      dup3\n        /* \"#utility.yul\":3695:3709   */\n      add\n        /* \"#utility.yul\":3687:3709   */\n      swap1\n      pop\n        /* \"#utility.yul\":3584:3716   */\n      swap2\n      swap1\n      pop\n      jump\t// out\n        /* \"#utility.yul\":3722:3799   */\n    tag_98:\n        /* \"#utility.yul\":3759:3766   */\n      0x00\n        /* \"#utility.yul\":3788:3793   */\n      dup2\n        /* \"#utility.yul\":3777:3793   */\n      swap1\n      pop\n        /* \"#utility.yul\":3722:3799   */\n      swap2\n      swap1\n      pop\n      jump\t// out\n        /* \"#utility.yul\":3805:3913   */\n    tag_99:\n        /* \"#utility.yul\":3882:3906   */\n      tag_145\n        /* \"#utility.yul\":3900:3905   */\n      dup2\n        /* \"#utility.yul\":3882:3906   */\n      tag_98\n      jump\t// in\n    tag_145:\n        /* \"#utility.yul\":3877:3880   */\n      dup3\n        /* \"#utility.yul\":3870:3907   */\n      mstore\n        /* \"#utility.yul\":3805:3913   */\n      pop\n      pop\n      jump\t// out\n        /* \"#utility.yul\":3919:4098   */\n    tag_100:\n        /* \"#utility.yul\":3988:3998   */\n      0x00\n        /* \"#utility.yul\":4009:4055   */\n      tag_147\n        /* \"#utility.yul\":4051:4054   */\n      dup4\n        /* \"#utility.yul\":4043:4049   */\n      dup4\n        /* \"#utility.yul\":4009:4055   */\n      tag_99\n      jump\t// in\n    tag_147:\n        /* \"#utility.yul\":4087:4091   */\n      0x20\n        /* \"#utility.yul\":4082:4085   */\n      dup4\n        /* \"#utility.yul\":4078:4092   */\n      add\n        /* \"#utility.yul\":4064:4092   */\n      swap1\n      pop\n        /* \"#utility.yul\":3919:4098   */\n      swap3\n      swap2\n      pop\n      pop\n      jump\t// out\n        /* \"#utility.yul\":4104:4217   */\n    tag_101:\n        /* \"#utility.yul\":4174:4178   */\n      0x00\n        /* \"#utility.yul\":4206:4210   */\n      0x20\n        /* \"#utility.yul\":4201:4204   */\n      dup3\n        /* \"#utility.yul\":4197:4211   */\n      add\n        /* \"#utility.yul\":4189:4211   */\n      swap1\n      pop\n        /* \"#utility.yul\":4104:4217   */\n      swap2\n      swap1\n      pop\n      jump\t// out\n        /* \"#utility.yul\":4253:4985   */\n    tag_102:\n        /* \"#utility.yul\":4372:4375   */\n      0x00\n        /* \"#utility.yul\":4401:4455   */\n      tag_150\n        /* \"#utility.yul\":4449:4454   */\n      dup3\n        /* \"#utility.yul\":4401:4455   */\n      tag_95\n      jump\t// in\n    tag_150:\n        /* \"#utility.yul\":4471:4557   */\n      tag_151\n        /* \"#utility.yul\":4550:4556   */\n      dup2\n        /* \"#utility.yul\":4545:4548   */\n      dup6\n        /* \"#utility.yul\":4471:4557   */\n      tag_96\n      jump\t// in\n    tag_151:\n        /* \"#utility.yul\":4464:4557   */\n      swap4\n      pop\n        /* \"#utility.yul\":4581:4637   */\n      tag_152\n        /* \"#utility.yul\":4631:4636   */\n      dup4\n        /* \"#utility.yul\":4581:4637   */\n      tag_97\n      jump\t// in\n    tag_152:\n        /* \"#utility.yul\":4660:4667   */\n      dup1\n        /* \"#utility.yul\":4691:4692   */\n      0x00\n        /* \"#utility.yul\":4676:4960   */\n    tag_153:\n        /* \"#utility.yul\":4701:4707   */\n      dup4\n        /* \"#utility.yul\":4698:4699   */\n      dup2\n        /* \"#utility.yul\":4695:4708   */\n      lt\n        /* \"#utility.yul\":4676:4960   */\n      iszero\n      tag_155\n      jumpi\n        /* \"#utility.yul\":4777:4783   */\n      dup2\n        /* \"#utility.yul\":4771:4784   */\n      mload\n        /* \"#utility.yul\":4804:4867   */\n      tag_156\n        /* \"#utility.yul\":4863:4866   */\n      dup9\n        /* \"#utility.yul\":4848:4861   */\n      dup3\n        /* \"#utility.yul\":4804:4867   */\n      tag_100\n      jump\t// in\n    tag_156:\n        /* \"#utility.yul\":4797:4867   */\n      swap8\n      pop\n        /* \"#utility.yul\":4890:4950   */\n      tag_157\n        /* \"#utility.yul\":4943:4949   */\n      dup4\n        /* \"#utility.yul\":4890:4950   */\n      tag_101\n      jump\t// in\n    tag_157:\n        /* \"#utility.yul\":4880:4950   */\n      swap3\n      pop\n        /* \"#utility.yul\":4736:4960   */\n      pop\n        /* \"#utility.yul\":4723:4724   */\n      0x01\n        /* \"#utility.yul\":4720:4721   */\n      dup2\n        /* \"#utility.yul\":4716:4725   */\n      add\n        /* \"#utility.yul\":4711:4725   */\n      swap1\n      pop\n        /* \"#utility.yul\":4676:4960   */\n      jump(tag_153)\n    tag_155:\n        /* \"#utility.yul\":4680:4694   */\n      pop\n        /* \"#utility.yul\":4976:4979   */\n      dup6\n        /* \"#utility.yul\":4969:4979   */\n      swap4\n      pop\n        /* \"#utility.yul\":4377:4985   */\n      pop\n      pop\n      pop\n        /* \"#utility.yul\":4253:4985   */\n      swap3\n      swap2\n      pop\n      pop\n      jump\t// out\n        /* \"#utility.yul\":4991:5364   */\n    tag_27:\n        /* \"#utility.yul\":5134:5138   */\n      0x00\n        /* \"#utility.yul\":5172:5174   */\n      0x20\n        /* \"#utility.yul\":5161:5170   */\n      dup3\n        /* \"#utility.yul\":5157:5175   */\n      add\n        /* \"#utility.yul\":5149:5175   */\n      swap1\n      pop\n        /* \"#utility.yul\":5221:5230   */\n      dup2\n        /* \"#utility.yul\":5215:5219   */\n      dup2\n        /* \"#utility.yul\":5211:5231   */\n      sub\n        /* \"#utility.yul\":5207:5208   */\n      0x00\n        /* \"#utility.yul\":5196:5205   */\n      dup4\n        /* \"#utility.yul\":5192:5209   */\n      add\n        /* \"#utility.yul\":5185:5232   */\n      mstore\n        /* \"#utility.yul\":5249:5357   */\n      tag_159\n        /* \"#utility.yul\":5352:5356   */\n      dup2\n        /* \"#utility.yul\":5343:5349   */\n      dup5\n        /* \"#utility.yul\":5249:5357   */\n      tag_102\n      jump\t// in\n    tag_159:\n        /* \"#utility.yul\":5241:5357   */\n      swap1\n      pop\n        /* \"#utility.yul\":4991:5364   */\n      swap3\n      swap2\n      pop\n      pop\n      jump\t// out\n        /* \"#utility.yul\":5370:5492   */\n    tag_103:\n        /* \"#utility.yul\":5443:5467   */\n      tag_161\n        /* \"#utility.yul\":5461:5466   */\n      dup2\n        /* \"#utility.yul\":5443:5467   */\n      tag_98\n      jump\t// in\n    tag_161:\n        /* \"#utility.yul\":5436:5441   */\n      dup2\n        /* \"#utility.yul\":5433:5468   */\n      eq\n        /* \"#utility.yul\":5423:5486   */\n      tag_162\n      jumpi\n        /* \"#utility.yul\":5482:5483   */\n      0x00\n        /* \"#utility.yul\":5479:5480   */\n      dup1\n        /* \"#utility.yul\":5472:5484   */\n      revert\n        /* \"#utility.yul\":5423:5486   */\n    tag_162:\n        /* \"#utility.yul\":5370:5492   */\n      pop\n      jump\t// out\n        /* \"#utility.yul\":5498:5641   */\n    tag_104:\n        /* \"#utility.yul\":5555:5560   */\n      0x00\n        /* \"#utility.yul\":5586:5592   */\n      dup2\n        /* \"#utility.yul\":5580:5593   */\n      mload\n        /* \"#utility.yul\":5571:5593   */\n      swap1\n      pop\n        /* \"#utility.yul\":5602:5635   */\n      tag_164\n        /* \"#utility.yul\":5629:5634   */\n      dup2\n        /* \"#utility.yul\":5602:5635   */\n      tag_103\n      jump\t// in\n    tag_164:\n        /* \"#utility.yul\":5498:5641   */\n      swap3\n      swap2\n      pop\n      pop\n      jump\t// out\n        /* \"#utility.yul\":5647:6154   */\n    tag_30:\n        /* \"#utility.yul\":5726:5732   */\n      0x00\n        /* \"#utility.yul\":5734:5740   */\n      dup1\n        /* \"#utility.yul\":5783:5785   */\n      0x40\n        /* \"#utility.yul\":5771:5780   */\n      dup4\n        /* \"#utility.yul\":5762:5769   */\n      dup6\n        /* \"#utility.yul\":5758:5781   */\n      sub\n        /* \"#utility.yul\":5754:5786   */\n      slt\n        /* \"#utility.yul\":5751:5870   */\n      iszero\n      tag_166\n      jumpi\n        /* \"#utility.yul\":5789:5868   */\n      tag_167\n      tag_84\n      jump\t// in\n    tag_167:\n        /* \"#utility.yul\":5751:5870   */\n    tag_166:\n        /* \"#utility.yul\":5909:5910   */\n      0x00\n        /* \"#utility.yul\":5934:5998   */\n      tag_168\n        /* \"#utility.yul\":5990:5997   */\n      dup6\n        /* \"#utility.yul\":5981:5987   */\n      dup3\n        /* \"#utility.yul\":5970:5979   */\n      dup7\n        /* \"#utility.yul\":5966:5988   */\n      add\n        /* \"#utility.yul\":5934:5998   */\n      tag_104\n      jump\t// in\n    tag_168:\n        /* \"#utility.yul\":5924:5998   */\n      swap3\n      pop\n        /* \"#utility.yul\":5880:6008   */\n      pop\n        /* \"#utility.yul\":6047:6049   */\n      0x20\n        /* \"#utility.yul\":6073:6137   */\n      tag_169\n        /* \"#utility.yul\":6129:6136   */\n      dup6\n        /* \"#utility.yul\":6120:6126   */\n      dup3\n        /* \"#utility.yul\":6109:6118   */\n      dup7\n        /* \"#utility.yul\":6105:6127   */\n      add\n        /* \"#utility.yul\":6073:6137   */\n      tag_104\n      jump\t// in\n    tag_169:\n        /* \"#utility.yul\":6063:6137   */\n      swap2\n      pop\n        /* \"#utility.yul\":6018:6147   */\n      pop\n        /* \"#utility.yul\":5647:6154   */\n      swap3\n      pop\n      swap3\n      swap1\n      pop\n      jump\t// out\n        /* \"#utility.yul\":6160:6340   */\n    tag_105:\n        /* \"#utility.yul\":6208:6285   */\n      0x4e487b7100000000000000000000000000000000000000000000000000000000\n        /* \"#utility.yul\":6205:6206   */\n      0x00\n        /* \"#utility.yul\":6198:6286   */\n      mstore\n        /* \"#utility.yul\":6305:6309   */\n      0x11\n        /* \"#utility.yul\":6302:6303   */\n      0x04\n        /* \"#utility.yul\":6295:6310   */\n      mstore\n        /* \"#utility.yul\":6329:6333   */\n      0x24\n        /* \"#utility.yul\":6326:6327   */\n      0x00\n        /* \"#utility.yul\":6319:6334   */\n      revert\n        /* \"#utility.yul\":6346:6540   */\n    tag_39:\n        /* \"#utility.yul\":6386:6390   */\n      0x00\n        /* \"#utility.yul\":6406:6426   */\n      tag_172\n        /* \"#utility.yul\":6424:6425   */\n      dup3\n        /* \"#utility.yul\":6406:6426   */\n      tag_98\n      jump\t// in\n    tag_172:\n        /* \"#utility.yul\":6401:6426   */\n      swap2\n      pop\n        /* \"#utility.yul\":6440:6460   */\n      tag_173\n        /* \"#utility.yul\":6458:6459   */\n      dup4\n        /* \"#utility.yul\":6440:6460   */\n      tag_98\n      jump\t// in\n    tag_173:\n        /* \"#utility.yul\":6435:6460   */\n      swap3\n      pop\n        /* \"#utility.yul\":6484:6485   */\n      dup3\n        /* \"#utility.yul\":6481:6482   */\n      dup3\n        /* \"#utility.yul\":6477:6486   */\n      sub\n        /* \"#utility.yul\":6469:6486   */\n      swap1\n      pop\n        /* \"#utility.yul\":6508:6509   */\n      dup2\n        /* \"#utility.yul\":6502:6506   */\n      dup2\n        /* \"#utility.yul\":6499:6510   */\n      gt\n        /* \"#utility.yul\":6496:6533   */\n      iszero\n      tag_174\n      jumpi\n        /* \"#utility.yul\":6513:6531   */\n      tag_175\n      tag_105\n      jump\t// in\n    tag_175:\n        /* \"#utility.yul\":6496:6533   */\n    tag_174:\n        /* \"#utility.yul\":6346:6540   */\n      swap3\n      swap2\n      pop\n      pop\n      jump\t// out\n\n    auxdata: 0xa2646970667358221220595c4c9520049e88d6957c7e5bf4e2862cab72149c18b87edfa733c123b5379a64736f6c634300081a0033\n}\n",
				"bytecode": {
					"linkReferences": {},
					"object": "6080604052348015600e575f80fd5b506108b48061001c5f395ff3fe60806040526004361061001d575f3560e01c806311c28c9914610021575b5f80fd5b61003b6004803603810190610036919061060b565b61003d565b005b5f8282905067ffffffffffffffff81111561005b5761005a61067c565b5b6040519080825280602002602001820160405280156100895781602001602082028036833780820191505090505b5090505f5b838390508110156100df578383828181106100ac576100ab6106a9565b5b905060200201358282815181106100c6576100c56106a9565b5b602002602001018181525050808060010191505061008e565b505f600190505b60011561045b575f816100f957856100fb565b865b90505f82610109578761010b565b865b90508173ffffffffffffffffffffffffffffffffffffffff166314f6f57a856040518263ffffffff1660e01b81526004016101469190610796565b60408051808303815f875af192505050801561018057506040513d601f19601f8201168201806040525081019061017d91906107e0565b60015b610257578173ffffffffffffffffffffffffffffffffffffffff1663c6616c466040518163ffffffff1660e01b81526004015f604051808303815f87803b1580156101c9575f80fd5b505af11580156101db573d5f803e3d5ffd5b505050508073ffffffffffffffffffffffffffffffffffffffff16630bc59f4f66038d7ea4c680003461020e919061084b565b6040518263ffffffff1660e01b81526004015f604051808303818588803b158015610237575f80fd5b505af1158015610249573d5f803e3d5ffd5b50505050505050505061045e565b610262868383610464565b1561033c578373ffffffffffffffffffffffffffffffffffffffff1663c6616c466040518163ffffffff1660e01b81526004015f604051808303815f87803b1580156102ac575f80fd5b505af11580156102be573d5f803e3d5ffd5b505050508273ffffffffffffffffffffffffffffffffffffffff16630bc59f4f66038d7ea4c68000346102f1919061084b565b6040518263ffffffff1660e01b81526004015f604051808303818588803b15801561031a575f80fd5b505af115801561032c573d5f803e3d5ffd5b505050505050505050505061045e565b808683815181106103505761034f6106a9565b5b60200260200101818151610364919061084b565b91508181525050610374866104e6565b1561044e578373ffffffffffffffffffffffffffffffffffffffff1663de6de5216040518163ffffffff1660e01b81526004015f604051808303815f87803b1580156103be575f80fd5b505af11580156103d0573d5f803e3d5ffd5b505050508273ffffffffffffffffffffffffffffffffffffffff16630bc59f4f66038d7ea4c6800034610403919061084b565b6040518263ffffffff1660e01b81526004015f604051808303818588803b15801561042c575f80fd5b505af115801561043e573d5f803e3d5ffd5b505050505050505050505061045e565b50508215925050506100e6565b50505b50505050565b5f80820361047557600190506104df565b5f848481518110610489576104886106a9565b5b60200260200101510361049f57600190506104df565b8383815181106104b2576104b16106a9565b5b60200260200101518211156104ca57600190506104df565b835183106104db57600190506104df565b5f90505b9392505050565b5f805f90505b825181101561052c575f838281518110610509576105086106a9565b5b60200260200101511461051f575f915050610532565b80806001019150506104ec565b50600190505b919050565b5f80fd5b5f80fd5b5f73ffffffffffffffffffffffffffffffffffffffff82169050919050565b5f6105688261053f565b9050919050565b5f6105798261055e565b9050919050565b6105898161056f565b8114610593575f80fd5b50565b5f813590506105a481610580565b92915050565b5f80fd5b5f80fd5b5f80fd5b5f8083601f8401126105cb576105ca6105aa565b5b8235905067ffffffffffffffff8111156105e8576105e76105ae565b5b602083019150836020820283011115610604576106036105b2565b5b9250929050565b5f805f806060858703121561062357610622610537565b5b5f61063087828801610596565b945050602061064187828801610596565b935050604085013567ffffffffffffffff8111156106625761066161053b565b5b61066e878288016105b6565b925092505092959194509250565b7f4e487b71000000000000000000000000000000000000000000000000000000005f52604160045260245ffd5b7f4e487b71000000000000000000000000000000000000000000000000000000005f52603260045260245ffd5b5f81519050919050565b5f82825260208201905092915050565b5f819050602082019050919050565b5f819050919050565b610711816106ff565b82525050565b5f6107228383610708565b60208301905092915050565b5f602082019050919050565b5f610744826106d6565b61074e81856106e0565b9350610759836106f0565b805f5b838110156107895781516107708882610717565b975061077b8361072e565b92505060018101905061075c565b5085935050505092915050565b5f6020820190508181035f8301526107ae818461073a565b905092915050565b6107bf816106ff565b81146107c9575f80fd5b50565b5f815190506107da816107b6565b92915050565b5f80604083850312156107f6576107f5610537565b5b5f610803858286016107cc565b9250506020610814858286016107cc565b9150509250929050565b7f4e487b71000000000000000000000000000000000000000000000000000000005f52601160045260245ffd5b5f610855826106ff565b9150610860836106ff565b92508282039050818111156108785761087761081e565b5b9291505056fea2646970667358221220595c4c9520049e88d6957c7e5bf4e2862cab72149c18b87edfa733c123b5379a64736f6c634300081a0033",
					"opcodes": "PUSH1 0x80 PUSH1 0x40 MSTORE CALLVALUE DUP1 ISZERO PUSH1 0xE JUMPI PUSH0 DUP1 REVERT JUMPDEST POP PUSH2 0x8B4 DUP1 PUSH2 0x1C PUSH0 CODECOPY PUSH0 RETURN INVALID PUSH1 0x80 PUSH1 0x40 MSTORE PUSH1 0x4 CALLDATASIZE LT PUSH2 0x1D JUMPI PUSH0 CALLDATALOAD PUSH1 0xE0 SHR DUP1 PUSH4 0x11C28C99 EQ PUSH2 0x21 JUMPI JUMPDEST PUSH0 DUP1 REVERT JUMPDEST PUSH2 0x3B PUSH1 0x4 DUP1 CALLDATASIZE SUB DUP2 ADD SWAP1 PUSH2 0x36 SWAP2 SWAP1 PUSH2 0x60B JUMP JUMPDEST PUSH2 0x3D JUMP JUMPDEST STOP JUMPDEST PUSH0 DUP3 DUP3 SWAP1 POP PUSH8 0xFFFFFFFFFFFFFFFF DUP2 GT ISZERO PUSH2 0x5B JUMPI PUSH2 0x5A PUSH2 0x67C JUMP JUMPDEST JUMPDEST PUSH1 0x40 MLOAD SWAP1 DUP1 DUP3 MSTORE DUP1 PUSH1 0x20 MUL PUSH1 0x20 ADD DUP3 ADD PUSH1 0x40 MSTORE DUP1 ISZERO PUSH2 0x89 JUMPI DUP2 PUSH1 0x20 ADD PUSH1 0x20 DUP3 MUL DUP1 CALLDATASIZE DUP4 CALLDATACOPY DUP1 DUP3 ADD SWAP2 POP POP SWAP1 POP JUMPDEST POP SWAP1 POP PUSH0 JUMPDEST DUP4 DUP4 SWAP1 POP DUP2 LT ISZERO PUSH2 0xDF JUMPI DUP4 DUP4 DUP3 DUP2 DUP2 LT PUSH2 0xAC JUMPI PUSH2 0xAB PUSH2 0x6A9 JUMP JUMPDEST JUMPDEST SWAP1 POP PUSH1 0x20 MUL ADD CALLDATALOAD DUP3 DUP3 DUP2 MLOAD DUP2 LT PUSH2 0xC6 JUMPI PUSH2 0xC5 PUSH2 0x6A9 JUMP JUMPDEST JUMPDEST PUSH1 0x20 MUL PUSH1 0x20 ADD ADD DUP2 DUP2 MSTORE POP POP DUP1 DUP1 PUSH1 0x1 ADD SWAP2 POP POP PUSH2 0x8E JUMP JUMPDEST POP PUSH0 PUSH1 0x1 SWAP1 POP JUMPDEST PUSH1 0x1 ISZERO PUSH2 0x45B JUMPI PUSH0 DUP2 PUSH2 0xF9 JUMPI DUP6 PUSH2 0xFB JUMP JUMPDEST DUP7 JUMPDEST SWAP1 POP PUSH0 DUP3 PUSH2 0x109 JUMPI DUP8 PUSH2 0x10B JUMP JUMPDEST DUP7 JUMPDEST SWAP1 POP DUP2 PUSH20 0xFFFFFFFFFFFFFFFFFFFFFFFFFFFFFFFFFFFFFFFF AND PUSH4 0x14F6F57A DUP6 PUSH1 0x40 MLOAD DUP3 PUSH4 0xFFFFFFFF AND PUSH1 0xE0 SHL DUP2 MSTORE PUSH1 0x4 ADD PUSH2 0x146 SWAP2 SWAP1 PUSH2 0x796 JUMP JUMPDEST PUSH1 0x40 DUP1 MLOAD DUP1 DUP4 SUB DUP2 PUSH0 DUP8 GAS CALL SWAP3 POP POP POP DUP1 ISZERO PUSH2 0x180 JUMPI POP PUSH1 0x40 MLOAD RETURNDATASIZE PUSH1 0x1F NOT PUSH1 0x1F DUP3 ADD AND DUP3 ADD DUP1 PUSH1 0x40 MSTORE POP DUP2 ADD SWAP1 PUSH2 0x17D SWAP2 SWAP1 PUSH2 0x7E0 JUMP JUMPDEST PUSH1 0x1 JUMPDEST PUSH2 0x257 JUMPI DUP2 PUSH20 0xFFFFFFFFFFFFFFFFFFFFFFFFFFFFFFFFFFFFFFFF AND PUSH4 0xC6616C46 PUSH1 0x40 MLOAD DUP2 PUSH4 0xFFFFFFFF AND PUSH1 0xE0 SHL DUP2 MSTORE PUSH1 0x4 ADD PUSH0 PUSH1 0x40 MLOAD DUP1 DUP4 SUB DUP2 PUSH0 DUP8 DUP1 EXTCODESIZE ISZERO DUP1 ISZERO PUSH2 0x1C9 JUMPI PUSH0 DUP1 REVERT JUMPDEST POP GAS CALL ISZERO DUP1 ISZERO PUSH2 0x1DB JUMPI RETURNDATASIZE PUSH0 DUP1 RETURNDATACOPY RETURNDATASIZE PUSH0 REVERT JUMPDEST POP POP POP POP DUP1 PUSH20 0xFFFFFFFFFFFFFFFFFFFFFFFFFFFFFFFFFFFFFFFF AND PUSH4 0xBC59F4F PUSH7 0x38D7EA4C68000 CALLVALUE PUSH2 0x20E SWAP2 SWAP1 PUSH2 0x84B JUMP JUMPDEST PUSH1 0x40 MLOAD DUP3 PUSH4 0xFFFFFFFF AND PUSH1 0xE0 SHL DUP2 MSTORE PUSH1 0x4 ADD PUSH0 PUSH1 0x40 MLOAD DUP1 DUP4 SUB DUP2 DUP6 DUP9 DUP1 EXTCODESIZE ISZERO DUP1 ISZERO PUSH2 0x237 JUMPI PUSH0 DUP1 REVERT JUMPDEST POP GAS CALL ISZERO DUP1 ISZERO PUSH2 0x249 JUMPI RETURNDATASIZE PUSH0 DUP1 RETURNDATACOPY RETURNDATASIZE PUSH0 REVERT JUMPDEST POP POP POP POP POP POP POP POP POP PUSH2 0x45E JUMP JUMPDEST PUSH2 0x262 DUP7 DUP4 DUP4 PUSH2 0x464 JUMP JUMPDEST ISZERO PUSH2 0x33C JUMPI DUP4 PUSH20 0xFFFFFFFFFFFFFFFFFFFFFFFFFFFFFFFFFFFFFFFF AND PUSH4 0xC6616C46 PUSH1 0x40 MLOAD DUP2 PUSH4 0xFFFFFFFF AND PUSH1 0xE0 SHL DUP2 MSTORE PUSH1 0x4 ADD PUSH0 PUSH1 0x40 MLOAD DUP1 DUP4 SUB DUP2 PUSH0 DUP8 DUP1 EXTCODESIZE ISZERO DUP1 ISZERO PUSH2 0x2AC JUMPI PUSH0 DUP1 REVERT JUMPDEST POP GAS CALL ISZERO DUP1 ISZERO PUSH2 0x2BE JUMPI RETURNDATASIZE PUSH0 DUP1 RETURNDATACOPY RETURNDATASIZE PUSH0 REVERT JUMPDEST POP POP POP POP DUP3 PUSH20 0xFFFFFFFFFFFFFFFFFFFFFFFFFFFFFFFFFFFFFFFF AND PUSH4 0xBC59F4F PUSH7 0x38D7EA4C68000 CALLVALUE PUSH2 0x2F1 SWAP2 SWAP1 PUSH2 0x84B JUMP JUMPDEST PUSH1 0x40 MLOAD DUP3 PUSH4 0xFFFFFFFF AND PUSH1 0xE0 SHL DUP2 MSTORE PUSH1 0x4 ADD PUSH0 PUSH1 0x40 MLOAD DUP1 DUP4 SUB DUP2 DUP6 DUP9 DUP1 EXTCODESIZE ISZERO DUP1 ISZERO PUSH2 0x31A JUMPI PUSH0 DUP1 REVERT JUMPDEST POP GAS CALL ISZERO DUP1 ISZERO PUSH2 0x32C JUMPI RETURNDATASIZE PUSH0 DUP1 RETURNDATACOPY RETURNDATASIZE PUSH0 REVERT JUMPDEST POP POP POP POP POP POP POP POP POP POP POP PUSH2 0x45E JUMP JUMPDEST DUP1 DUP7 DUP4 DUP2 MLOAD DUP2 LT PUSH2 0x350 JUMPI PUSH2 0x34F PUSH2 0x6A9 JUMP JUMPDEST JUMPDEST PUSH1 0x20 MUL PUSH1 0x20 ADD ADD DUP2 DUP2 MLOAD PUSH2 0x364 SWAP2 SWAP1 PUSH2 0x84B JUMP JUMPDEST SWAP2 POP DUP2 DUP2 MSTORE POP POP PUSH2 0x374 DUP7 PUSH2 0x4E6 JUMP JUMPDEST ISZERO PUSH2 0x44E JUMPI DUP4 PUSH20 0xFFFFFFFFFFFFFFFFFFFFFFFFFFFFFFFFFFFFFFFF AND PUSH4 0xDE6DE521 PUSH1 0x40 MLOAD DUP2 PUSH4 0xFFFFFFFF AND PUSH1 0xE0 SHL DUP2 MSTORE PUSH1 0x4 ADD PUSH0 PUSH1 0x40 MLOAD DUP1 DUP4 SUB DUP2 PUSH0 DUP8 DUP1 EXTCODESIZE ISZERO DUP1 ISZERO PUSH2 0x3BE JUMPI PUSH0 DUP1 REVERT JUMPDEST POP GAS CALL ISZERO DUP1 ISZERO PUSH2 0x3D0 JUMPI RETURNDATASIZE PUSH0 DUP1 RETURNDATACOPY RETURNDATASIZE PUSH0 REVERT JUMPDEST POP POP POP POP DUP3 PUSH20 0xFFFFFFFFFFFFFFFFFFFFFFFFFFFFFFFFFFFFFFFF AND PUSH4 0xBC59F4F PUSH7 0x38D7EA4C68000 CALLVALUE PUSH2 0x403 SWAP2 SWAP1 PUSH2 0x84B JUMP JUMPDEST PUSH1 0x40 MLOAD DUP3 PUSH4 0xFFFFFFFF AND PUSH1 0xE0 SHL DUP2 MSTORE PUSH1 0x4 ADD PUSH0 PUSH1 0x40 MLOAD DUP1 DUP4 SUB DUP2 DUP6 DUP9 DUP1 EXTCODESIZE ISZERO DUP1 ISZERO PUSH2 0x42C JUMPI PUSH0 DUP1 REVERT JUMPDEST POP GAS CALL ISZERO DUP1 ISZERO PUSH2 0x43E JUMPI RETURNDATASIZE PUSH0 DUP1 RETURNDATACOPY RETURNDATASIZE PUSH0 REVERT JUMPDEST POP POP POP POP POP POP POP POP POP POP POP PUSH2 0x45E JUMP JUMPDEST POP POP DUP3 ISZERO SWAP3 POP POP POP PUSH2 0xE6 JUMP JUMPDEST POP POP JUMPDEST POP POP POP POP JUMP JUMPDEST PUSH0 DUP1 DUP3 SUB PUSH2 0x475 JUMPI PUSH1 0x1 SWAP1 POP PUSH2 0x4DF JUMP JUMPDEST PUSH0 DUP5 DUP5 DUP2 MLOAD DUP2 LT PUSH2 0x489 JUMPI PUSH2 0x488 PUSH2 0x6A9 JUMP JUMPDEST JUMPDEST PUSH1 0x20 MUL PUSH1 0x20 ADD ADD MLOAD SUB PUSH2 0x49F JUMPI PUSH1 0x1 SWAP1 POP PUSH2 0x4DF JUMP JUMPDEST DUP4 DUP4 DUP2 MLOAD DUP2 LT PUSH2 0x4B2 JUMPI PUSH2 0x4B1 PUSH2 0x6A9 JUMP JUMPDEST JUMPDEST PUSH1 0x20 MUL PUSH1 0x20 ADD ADD MLOAD DUP3 GT ISZERO PUSH2 0x4CA JUMPI PUSH1 0x1 SWAP1 POP PUSH2 0x4DF JUMP JUMPDEST DUP4 MLOAD DUP4 LT PUSH2 0x4DB JUMPI PUSH1 0x1 SWAP1 POP PUSH2 0x4DF JUMP JUMPDEST PUSH0 SWAP1 POP JUMPDEST SWAP4 SWAP3 POP POP POP JUMP JUMPDEST PUSH0 DUP1 PUSH0 SWAP1 POP JUMPDEST DUP3 MLOAD DUP2 LT ISZERO PUSH2 0x52C JUMPI PUSH0 DUP4 DUP3 DUP2 MLOAD DUP2 LT PUSH2 0x509 JUMPI PUSH2 0x508 PUSH2 0x6A9 JUMP JUMPDEST JUMPDEST PUSH1 0x20 MUL PUSH1 0x20 ADD ADD MLOAD EQ PUSH2 0x51F JUMPI PUSH0 SWAP2 POP POP PUSH2 0x532 JUMP JUMPDEST DUP1 DUP1 PUSH1 0x1 ADD SWAP2 POP POP PUSH2 0x4EC JUMP JUMPDEST POP PUSH1 0x1 SWAP1 POP JUMPDEST SWAP2 SWAP1 POP JUMP JUMPDEST PUSH0 DUP1 REVERT JUMPDEST PUSH0 DUP1 REVERT JUMPDEST PUSH0 PUSH20 0xFFFFFFFFFFFFFFFFFFFFFFFFFFFFFFFFFFFFFFFF DUP3 AND SWAP1 POP SWAP2 SWAP1 POP JUMP JUMPDEST PUSH0 PUSH2 0x568 DUP3 PUSH2 0x53F JUMP JUMPDEST SWAP1 POP SWAP2 SWAP1 POP JUMP JUMPDEST PUSH0 PUSH2 0x579 DUP3 PUSH2 0x55E JUMP JUMPDEST SWAP1 POP SWAP2 SWAP1 POP JUMP JUMPDEST PUSH2 0x589 DUP2 PUSH2 0x56F JUMP JUMPDEST DUP2 EQ PUSH2 0x593 JUMPI PUSH0 DUP1 REVERT JUMPDEST POP JUMP JUMPDEST PUSH0 DUP2 CALLDATALOAD SWAP1 POP PUSH2 0x5A4 DUP2 PUSH2 0x580 JUMP JUMPDEST SWAP3 SWAP2 POP POP JUMP JUMPDEST PUSH0 DUP1 REVERT JUMPDEST PUSH0 DUP1 REVERT JUMPDEST PUSH0 DUP1 REVERT JUMPDEST PUSH0 DUP1 DUP4 PUSH1 0x1F DUP5 ADD SLT PUSH2 0x5CB JUMPI PUSH2 0x5CA PUSH2 0x5AA JUMP JUMPDEST JUMPDEST DUP3 CALLDATALOAD SWAP1 POP PUSH8 0xFFFFFFFFFFFFFFFF DUP2 GT ISZERO PUSH2 0x5E8 JUMPI PUSH2 0x5E7 PUSH2 0x5AE JUMP JUMPDEST JUMPDEST PUSH1 0x20 DUP4 ADD SWAP2 POP DUP4 PUSH1 0x20 DUP3 MUL DUP4 ADD GT ISZERO PUSH2 0x604 JUMPI PUSH2 0x603 PUSH2 0x5B2 JUMP JUMPDEST JUMPDEST SWAP3 POP SWAP3 SWAP1 POP JUMP JUMPDEST PUSH0 DUP1 PUSH0 DUP1 PUSH1 0x60 DUP6 DUP8 SUB SLT ISZERO PUSH2 0x623 JUMPI PUSH2 0x622 PUSH2 0x537 JUMP JUMPDEST JUMPDEST PUSH0 PUSH2 0x630 DUP8 DUP3 DUP9 ADD PUSH2 0x596 JUMP JUMPDEST SWAP5 POP POP PUSH1 0x20 PUSH2 0x641 DUP8 DUP3 DUP9 ADD PUSH2 0x596 JUMP JUMPDEST SWAP4 POP POP PUSH1 0x40 DUP6 ADD CALLDATALOAD PUSH8 0xFFFFFFFFFFFFFFFF DUP2 GT ISZERO PUSH2 0x662 JUMPI PUSH2 0x661 PUSH2 0x53B JUMP JUMPDEST JUMPDEST PUSH2 0x66E DUP8 DUP3 DUP9 ADD PUSH2 0x5B6 JUMP JUMPDEST SWAP3 POP SWAP3 POP POP SWAP3 SWAP6 SWAP2 SWAP5 POP SWAP3 POP JUMP JUMPDEST PUSH32 0x4E487B7100000000000000000000000000000000000000000000000000000000 PUSH0 MSTORE PUSH1 0x41 PUSH1 0x4 MSTORE PUSH1 0x24 PUSH0 REVERT JUMPDEST PUSH32 0x4E487B7100000000000000000000000000000000000000000000000000000000 PUSH0 MSTORE PUSH1 0x32 PUSH1 0x4 MSTORE PUSH1 0x24 PUSH0 REVERT JUMPDEST PUSH0 DUP2 MLOAD SWAP1 POP SWAP2 SWAP1 POP JUMP JUMPDEST PUSH0 DUP3 DUP3 MSTORE PUSH1 0x20 DUP3 ADD SWAP1 POP SWAP3 SWAP2 POP POP JUMP JUMPDEST PUSH0 DUP2 SWAP1 POP PUSH1 0x20 DUP3 ADD SWAP1 POP SWAP2 SWAP1 POP JUMP JUMPDEST PUSH0 DUP2 SWAP1 POP SWAP2 SWAP1 POP JUMP JUMPDEST PUSH2 0x711 DUP2 PUSH2 0x6FF JUMP JUMPDEST DUP3 MSTORE POP POP JUMP JUMPDEST PUSH0 PUSH2 0x722 DUP4 DUP4 PUSH2 0x708 JUMP JUMPDEST PUSH1 0x20 DUP4 ADD SWAP1 POP SWAP3 SWAP2 POP POP JUMP JUMPDEST PUSH0 PUSH1 0x20 DUP3 ADD SWAP1 POP SWAP2 SWAP1 POP JUMP JUMPDEST PUSH0 PUSH2 0x744 DUP3 PUSH2 0x6D6 JUMP JUMPDEST PUSH2 0x74E DUP2 DUP6 PUSH2 0x6E0 JUMP JUMPDEST SWAP4 POP PUSH2 0x759 DUP4 PUSH2 0x6F0 JUMP JUMPDEST DUP1 PUSH0 JUMPDEST DUP4 DUP2 LT ISZERO PUSH2 0x789 JUMPI DUP2 MLOAD PUSH2 0x770 DUP9 DUP3 PUSH2 0x717 JUMP JUMPDEST SWAP8 POP PUSH2 0x77B DUP4 PUSH2 0x72E JUMP JUMPDEST SWAP3 POP POP PUSH1 0x1 DUP2 ADD SWAP1 POP PUSH2 0x75C JUMP JUMPDEST POP DUP6 SWAP4 POP POP POP POP SWAP3 SWAP2 POP POP JUMP JUMPDEST PUSH0 PUSH1 0x20 DUP3 ADD SWAP1 POP DUP2 DUP2 SUB PUSH0 DUP4 ADD MSTORE PUSH2 0x7AE DUP2 DUP5 PUSH2 0x73A JUMP JUMPDEST SWAP1 POP SWAP3 SWAP2 POP POP JUMP JUMPDEST PUSH2 0x7BF DUP2 PUSH2 0x6FF JUMP JUMPDEST DUP2 EQ PUSH2 0x7C9 JUMPI PUSH0 DUP1 REVERT JUMPDEST POP JUMP JUMPDEST PUSH0 DUP2 MLOAD SWAP1 POP PUSH2 0x7DA DUP2 PUSH2 0x7B6 JUMP JUMPDEST SWAP3 SWAP2 POP POP JUMP JUMPDEST PUSH0 DUP1 PUSH1 0x40 DUP4 DUP6 SUB SLT ISZERO PUSH2 0x7F6 JUMPI PUSH2 0x7F5 PUSH2 0x537 JUMP JUMPDEST JUMPDEST PUSH0 PUSH2 0x803 DUP6 DUP3 DUP7 ADD PUSH2 0x7CC JUMP JUMPDEST SWAP3 POP POP PUSH1 0x20 PUSH2 0x814 DUP6 DUP3 DUP7 ADD PUSH2 0x7CC JUMP JUMPDEST SWAP2 POP POP SWAP3 POP SWAP3 SWAP1 POP JUMP JUMPDEST PUSH32 0x4E487B7100000000000000000000000000000000000000000000000000000000 PUSH0 MSTORE PUSH1 0x11 PUSH1 0x4 MSTORE PUSH1 0x24 PUSH0 REVERT JUMPDEST PUSH0 PUSH2 0x855 DUP3 PUSH2 0x6FF JUMP JUMPDEST SWAP2 POP PUSH2 0x860 DUP4 PUSH2 0x6FF JUMP JUMPDEST SWAP3 POP DUP3 DUP3 SUB SWAP1 POP DUP2 DUP2 GT ISZERO PUSH2 0x878 JUMPI PUSH2 0x877 PUSH2 0x81E JUMP JUMPDEST JUMPDEST SWAP3 SWAP2 POP POP JUMP INVALID LOG2 PUSH5 0x6970667358 0x22 SLT KECCAK256 MSIZE TLOAD 0x4C SWAP6 KECCAK256 DIV SWAP15 DUP9 0xD6 SWAP6 PUSH29 0x7E5BF4E2862CAB72149C18B87EDFA733C123B5379A64736F6C63430008 BYTE STOP CALLER "
				},
				"gasEstimates": {
					"creation": {
						"codeDepositCost": "445600",
						"executionCost": "478",
						"totalCost": "446078"
					},
					"external": {
						"startMisere(address,address,uint256[])": "infinite"
					},
					"internal": {
						"checkEmpty(uint256[] memory)": "infinite",
						"illegalMove(uint256[] memory,uint256,uint256)": "infinite"
					}
				},
				"methodIdentifiers": {
					"startMisere(address,address,uint256[])": "11c28c99"
				}
			},
			"storageLayout": {
				"storage": [],
				"types": null
			},
			"userdoc": {
				"kind": "user",
				"methods": {},
				"version": 1
			}
		}
	}
}